:100000000C942A000C9447000C9447000C94470071
:100010000C9447000C9447000C9447000C94470044
:100020000C9447000C9447000C9447000C94470034
:100030000C9447000C9447000C9447000C94470024
:100040000C9447000C9447000C9447000C94470014
:100050000C94470011241FBECFE5D8E0DEBFCDBF12
:1000600011E0A0E6B0E0E4E5F0E302C005900D92F7
:10007000A238B107D9F711E0A2E8B1E001C01D92A2
:10008000A338B107E1F70E949C150C9428180C9432
:100090000000EF92FF920F931F937B018C0120E0F1
:1000A00030E040E05FE40E94490388238CF0C801FF
:1000B000B70120E030E040E05FE40E94C1010E940F
:1000C00007049B01AC01205030404040504806C01E
:1000D000C801B7010E9407049B01AC01B901CA0124
:1000E0001F910F91FF90EF900895A0E0B0E0EBE733
:1000F000F0E00C94F117DC012B01FA019C91923095
:1001000008F439C1EB018881823008F433C194309E
:1001100069F4843009F02FC111969C91119789815F
:10012000981709F428C1A9E7B0E025C1843009F483
:1001300021C18230A9F4923009F01DC19A01AD01AC
:1001400088E0EA010990AE01E90109929E0181501F
:10015000C1F7E201898111969C918923818308C1AD
:10016000923009F407C112962D903C901397EB0141
:100170008A819B811496AD90BD90CD90DC901797AD
:10018000EC80FD800E811F819101281B390BB90184
:1001900037FF04C066277727621B730B6032710537
:1001A0000CF061C0121613066CF537014801062EDB
:1001B00004C096948794779467940A94D2F721E0C8
:1001C00030E040E050E004C0220F331F441F551FB1
:1001D0006A95D2F721503040404050402E213F21B7
:1001E00040235123211531054105510521F021E01E
:1001F00030E040E050E079018A01E628F72808293C
:1002000019293CC0232BD1F1260E371E350146019A
:10021000062E04C096948794779467940A94D2F734
:1002200021E030E040E050E004C0220F331F441FC3
:10023000551F6A95D2F721503040404050402A2146
:100240003B214C215D21211531054105510521F04E
:1002500021E030E040E050E059016A01A628B728CB
:10026000C828D9280BC0821593052CF01C01AA249C
:10027000BB24650103C0EE24FF24870111969C91E5
:10028000D20111968C91981709F445C0992339F041
:10029000A80197012A193B094C095D0906C0A6016E
:1002A00095012E193F09400B510B57FD08C01182D3
:1002B0003382228224833583468357831DC081E0A5
:1002C00081833382228288279927DC01821B930B4A
:1002D000A40BB50B84839583A683B7830DC0220F2F
:1002E000331F441F551F24833583468357838281E0
:1002F000938101979383828324813581468157813D
:10030000DA01C9010197A109B1098F5F9F4FAF4F72
:10031000BF4328F30BC0918333822282EA0CFB1C7B
:100320000C1D1D1DE482F5820683178383E0808304
:10033000248135814681578157FF1AC0C901AA27F8
:1003400097FDA095BA2F81709070A070B0705695EF
:10035000479537952795822B932BA42BB52B848318
:100360009583A683B7838281938101969383828349
:10037000DF0101C0D201CD01CDB7DEB7E2E10C94BF
:100380000D18A0E2B0E0E7ECF1E00C94FD176983F2
:100390007A838B839C832D833E834F835887E9E048
:1003A000EE2EF12CEC0EFD1ECE010196B7010E943F
:1003B0007F058E010F5E1F4FCE010596B8010E948A
:1003C0007F058A8991E089278A8BC701B801AE0130
:1003D000475E5F4F0E9475000E94AA04A096E6E067
:1003E0000C941918A0E2B0E0E8EFF1E00C94FD17CE
:1003F00069837A838B839C832D833E834F835887C5
:10040000F9E0EF2EF12CEC0EFD1ECE010196B701A6
:100410000E947F058E010F5E1F4FCE010596B80129
:100420000E947F05C701B801AE01475E5F4F0E9481
:1004300075000E94AA04A096E6E00C941918A0E2A8
:10044000B0E0E5E2F2E00C94F11769837A838B83E4
:100450009C832D833E834F835887CE010196BE0136
:10046000675F7F4F0E947F05CE010596BE016F5EDC
:100470007F4F0E947F059985923088F0898982306C
:10048000C8F0943019F4823051F404C0843029F457
:10049000923081F489E790E0C6C0923049F420E0C0
:1004A0009A858A89981321E02A87CE010996BBC0D4
:1004B000823049F420E09A858A89981321E02A8BBA
:1004C000CE014196B0C02D843E844F8458886D88FB
:1004D0007E888F88988CEE24FF248701AA24BB2471
:1004E000650140E050E060E070E0E0E0F0E0C10174
:1004F00081709070892BE9F0E60CF71C081D191D1E
:100500009A01AB012A0D3B1D4C1D5D1D80E090E062
:10051000A0E0B0E0E614F7040805190520F481E036
:1005200090E0A0E0B0E0BA01A901480F591F6A1F8E
:100530007B1FAA0CBB1CCC1CDD1C97FE08C081E0F5
:1005400090E0A0E0B0E0A82AB92ACA2ADB2A3196B6
:10055000E032F10549F0660C771C881C991C569412
:10056000479437942794C3CFFA85EA892B893C892D
:100570008B859C85280F391F2E5F3F4F17C0CA01FE
:1005800081709070892B61F016950795F794E79428
:1005900080E090E0A0E0B0E8E82AF92A0A2B1B2BC3
:1005A00076956795579547952F5F3F4F77FDE7CF36
:1005B0000CC0440F551F661F771F17FD4160EE0CDE
:1005C000FF1C001F111F21503040403090E05907A0
:1005D00090E0690790E4790760F32B8F3C8FDB0193
:1005E000CA018F779070A070B07080349105A1051A
:1005F000B10561F447FD0AC0E114F10401051105DC
:1006000029F0405C5F4F6F4F7F4F40781A8EFE1786
:1006100011F081E08A8F4D8F5E8F6F8F78A383E01A
:10062000898FCE0149960E94AA04A096E2E10C941B
:100630000D18A8E1B0E0EFE1F3E00C94FD17698339
:100640007A838B839C832D833E834F83588789E0F5
:10065000E82EF12CEC0EFD1ECE010196B7010E9492
:100660007F058E010F5E1F4FCE010596B8010E94D7
:100670007F058985823040F08989823028F0C70162
:10068000B8010E94F70501C08FEF6896E6E00C9470
:100690001918A8E1B0E0EFE4F3E00C94FD176983CA
:1006A0007A838B839C832D833E834F83588789E095
:1006B000E82EF12CEC0EFD1ECE010196B7010E9432
:1006C0007F058E010F5E1F4FCE010596B8010E9477
:1006D0007F058985823040F08989823028F0C70102
:1006E000B8010E94F70501C08FEF6896E6E00C9410
:1006F0001918A8E1B0E0EFE7F3E00C94FD17698367
:100700007A838B839C832D833E834F83588789E034
:10071000E82EF12CEC0EFD1ECE010196B7010E94D1
:100720007F058E010F5E1F4FCE010596B8010E9416
:100730007F058985823040F08989823028F0C701A1
:10074000B8010E94F70501C081E06896E6E00C94CC
:100750001918A8E0B0E0EFEAF3E00C94FA179B0157
:10076000AC0183E08983DA01C9018827B7FD83954D
:100770009927AA27BB27B82E211531054105510518
:1007800019F482E089833AC08823A9F0203080E000
:10079000380780E0480780E8580729F460E070E0F7
:1007A00080E09FEC30C0EE24FF248701E21AF30AB8
:1007B000040B150B02C079018A018EE1C82ED12CE1
:1007C000DC82CB82ED82FE820F831887C801B701DD
:1007D0000E945B0401971816190684F4082E04C0C1
:1007E000EE0CFF1C001F111F0A94D2F7ED82FE824F
:1007F0000F831887C81AD90ADC82CB82BA82CE014D
:1008000001960E94AA042896E9E00C941618ACE020
:10081000B0E0EDE0F4E00C94011869837A838B83F7
:100820009C83CE010196BE016B5F7F4F0E947F05C6
:100830008D81823061F1823050F1843021F48E81DB
:10084000882351F12EC02F81388537FD20C06E815D
:100850002F3131051CF06623F9F023C08EE190E0C2
:10086000821B930B29853A854B855C8504C0569580
:100870004795379527958A95D2F76623B1F050951D
:100880004095309521953F4F4F4F5F4F0EC020E070
:1008900030E040E050E009C02FEF3FEF4FEF5FE75F
:1008A00004C020E030E040E050E8B901CA012C96D5
:1008B000E2E00C941D18EF92FF920F931F937B01BF
:1008C0008C0180E0E81680E0F80681E0080780E00F
:1008D000180788F48FEFE816F1040105110531F0CF
:1008E00028F088E090E0A0E0B0E017C080E090E061
:1008F000A0E0B0E012C080E0E81680E0F80680E0FA
:10090000080781E0180728F088E190E0A0E0B0E057
:1009100004C080E190E0A0E0B0E020E230E040E000
:1009200050E0281B390B4A0B5B0B04C0169507954A
:10093000F794E7948A95D2F7F701EF57FF4F80813C
:10094000281B310941095109C9011F910F91FF90DD
:10095000EF900895DF92EF92FF920F931F93FC01A7
:10096000E480F58006811781D1808081823048F44F
:1009700080E090E0A0E1B0E0E82AF92A0A2B1B2BE6
:10098000A5C0843009F49FC0823021F4EE24FF24F6
:10099000870105C0E114F1040105110519F4E0E037
:1009A000F0E096C0628173819FEF623879070CF0A6
:1009B0005BC022E83FEF261B370B2A3131052CF0B4
:1009C00020E030E040E050E02AC0B801A701022E4C
:1009D00004C076956795579547950A94D2F781E0BC
:1009E00090E0A0E0B0E004C0880F991FAA1FBB1FD1
:1009F0002A95D2F70197A109B1098E219F21A02341
:100A0000B1230097A105B10521F081E090E0A0E0BD
:100A1000B0E09A01AB01282B392B4A2B5B2BDA0172
:100A2000C9018F779070A070B07080349105A105D6
:100A3000B10539F427FF09C0205C3F4F4F4F5F4F8E
:100A400004C0215C3F4F4F4F5F4FE0E0F0E02030AB
:100A5000A0E03A07A0E04A07A0E45A0710F0E1E05E
:100A6000F0E079018A0127C06038710564F5FB0167
:100A7000E158FF4FD801C7018F779070A070B07018
:100A800080349105A105B10539F4E7FE0DC080E47D
:100A900090E0A0E0B0E004C08FE390E0A0E0B0E020
:100AA000E80EF91E0A1F1B1F17FF05C016950795B4
:100AB000F794E794319687E016950795F794E794B5
:100AC0008A95D1F705C0EE24FF248701EFEFF0E00F
:100AD0006E2F679566276795902F9F77D794DD24B3
:100AE000D7948E2F8695492F462B582F5D29B70115
:100AF000CA011F910F91FF90EF90DF900895FC01C4
:100B0000DB01408151812281622F6F7770E0221FCB
:100B10002227221F9381892F880F822B282F30E0D4
:100B2000991F9927991F11969C93119721153105AB
:100B3000A9F5411551056105710511F482E037C031
:100B400082E89FEF13969C938E9312979A01AB01C4
:100B500067E0220F331F441F551F6A95D1F783E0CA
:100B60008C930DC0220F331F441F551F12968D9179
:100B70009C911397019713969C938E931297203014
:100B800080E0380780E0480780E4580758F314965F
:100B90002D933D934D935C93179708952F3F310507
:100BA00079F4411551056105710519F484E08C93C0
:100BB000089564FF03C081E08C9312C01C9210C0A2
:100BC0002F57304013963C932E93129783E08C93CB
:100BD00087E0440F551F661F771F8A95D1F7706411
:100BE00014964D935D936D937C93179708951F937F
:100BF000DC01FB019C91923008F447C08081823077
:100C000008F443C0943051F411961C91843099F546
:100C10008181682F70E0611B71093FC0843021F031
:100C2000923031F48230B9F18181882389F12DC06D
:100C300011961C9111978230F1F081811817D9F427
:100C400012962D913C91139782819381821793077D
:100C500094F028173907BCF014968D919D910D9052
:100C6000BC91A02D248135814681578128173907F1
:100C70004A075B0718F4112341F00AC08217930753
:100C8000A407B50740F4112319F061E070E005C036
:100C90006FEF7FEF02C060E070E0CB011F9108951D
:100CA000DF93CF93CDB7DEB76D970FB6F894DEBF65
:100CB0000FBECDBF8D8F81E060E041E00E94211129
:100CC00081E061E040E00E94211182E06D8D0E9490
:100CD000EE1281E062E041E00E94211180E090E0AC
:100CE000A0E8BFE3898F9A8FAB8FBC8F698D7A8D17
:100CF0008B8D9C8D20E030E04AEF54E40E941F026F
:100D0000DC01CB018D8B9E8BAF8BB88F6D897E897B
:100D10008F89988D20E030E040E85FE30E947903FE
:100D200088232CF481E090E09C8B8B8B3FC06D89F5
:100D30007E898F89988D20E03FEF4FE757E40E942E
:100D4000190318164CF5698D7A8D8B8D9C8D20E0DA
:100D500030E040E251E40E941F02DC01CB01BC0103
:100D6000CD010E944900DC01CB019C8B8B8B0FC015
:100D700088EC90E09A8B898B89899A890197F1F7A1
:100D80009A8B898B8B899C8901979C8B8B8B8B8908
:100D90009C89009769F714C06D897E898F89988D29
:100DA0000E944900DC01CB019C8B8B8B8B899C8939
:100DB000988B8F878F8598890197F1F7988B8F870C
:100DC00081E062E040E00E94211180E090E0A0E834
:100DD000B0E48B879C87AD87BE876B857C858D85CE
:100DE0009E8520E030E04AEF54E40E941F02DC01BF
:100DF000CB018F839887A987BA876F81788589858A
:100E00009A8520E030E040E85FE30E947903882380
:100E10002CF481E090E09E838D833FC06F817885C4
:100E200089859A8520E03FEF4FE757E40E94190338
:100E300018164CF56B857C858D859E8520E030E00D
:100E400040E251E40E941F02DC01CB01BC01CD0154
:100E50000E944900DC01CB019E838D830FC088EC8A
:100E600090E09C838B838B819C810197F1F79C831D
:100E70008B838D819E8101979E838D838D819E8141
:100E8000009769F714C06F81788589859A850E94DB
:100E90004900DC01CB019E838D838D819E819A83E5
:100EA000898389819A810197F1F79A8389836D9665
:100EB0000FB6F894DEBF0FBECDBFCF91DF9108957E
:100EC000DF93CF93CDB7DEB76D970FB6F894DEBF43
:100ED0000FBECDBF8D8F81E060E040E00E94211108
:100EE00081E061E040E00E94211182E06D8D0E946E
:100EF000EE1281E062E041E00E94211180E090E08A
:100F0000A0E8BFE3898F9A8FAB8FBC8F698D7A8DF4
:100F10008B8D9C8D20E030E04AEF54E40E941F024C
:100F2000DC01CB018D8B9E8BAF8BB88F6D897E8959
:100F30008F89988D20E030E040E85FE30E947903DC
:100F400088232CF481E090E09C8B8B8B3FC06D89D3
:100F50007E898F89988D20E03FEF4FE757E40E940C
:100F6000190318164CF5698D7A8D8B8D9C8D20E0B8
:100F700030E040E251E40E941F02DC01CB01BC01E1
:100F8000CD010E944900DC01CB019C8B8B8B0FC0F3
:100F900088EC90E09A8B898B89899A890197F1F77F
:100FA0009A8B898B8B899C8901979C8B8B8B8B89E6
:100FB0009C89009769F714C06D897E898F89988D07
:100FC0000E944900DC01CB019C8B8B8B8B899C8917
:100FD000988B8F878F8598890197F1F7988B8F87EA
:100FE00081E062E040E00E94211180E090E0A0E812
:100FF000B0E48B879C87AD87BE876B857C858D85AC
:101000009E8520E030E04AEF54E40E941F02DC019C
:10101000CB018F839887A987BA876F817885898567
:101020009A8520E030E040E85FE30E94790388235E
:101030002CF481E090E09E838D833FC06F817885A2
:1010400089859A8520E03FEF4FE757E40E94190316
:1010500018164CF56B857C858D859E8520E030E0EB
:1010600040E251E40E941F02DC01CB01BC01CD0132
:101070000E944900DC01CB019E838D830FC088EC68
:1010800090E09C838B838B819C810197F1F79C83FB
:101090008B838D819E8101979E838D838D819E811F
:1010A000009769F714C06F81788589859A850E94B9
:1010B0004900DC01CB019E838D838D819E819A83C3
:1010C000898389819A810197F1F79A8389836D9643
:1010D0000FB6F894DEBF0FBECDBFCF91DF9108955C
:1010E000DF93CF93CDB7DEB7E8970FB6F894DEBFA6
:1010F0000FBECDBF82E06FEF0E94AD1281E060E0D5
:1011000041E00E94191081E061E041E00E94191065
:1011100081E062E041E00E94191080E090E0A8E4E4
:10112000B2E48DAB9EABAFABB8AF6DA97EA98FA972
:1011300098AD20E030E04AEF54E40E941F02DC0149
:10114000CB0189AB9AABABABBCAB69A97AA98BA934
:101150009CA920E030E040E85FE30E947903882307
:101160002CF481E090E098AB8FA73FC069A97AA9E1
:101170008BA99CA920E03FEF4FE757E40E94190399
:1011800018164CF56DA97EA98FA998AD20E030E026
:1011900040E251E40E941F02DC01CB01BC01CD0101
:1011A0000E944900DC01CB0198AB8FA70FC088ECEF
:1011B00090E09EA78DA78DA59EA50197F1F79EA70C
:1011C0008DA78FA598A9019798AB8FA78FA598A9F0
:1011D000009769F714C069A97AA98BA99CA90E94F4
:1011E0004900DC01CB0198AB8FA78FA598A99CA7DC
:1011F0008BA78BA59CA50197F1F79CA78BA788E3EC
:101200000E94600780E090E0A0E8BFE38FA398A76A
:10121000A9A7BAA76FA178A589A59AA520E030E073
:101220004AEF54E40E941F02DC01CB018BA39CA374
:10123000ADA3BEA36BA17CA18DA19EA120E030E057
:1012400040E85FE30E94790388232CF481E090E07A
:101250009AA389A33FC06BA17CA18DA19EA120E090
:101260003FEF4FE757E40E94190318164CF56FA1A2
:1012700078A589A59AA520E030E040E251E40E94DB
:101280001F02DC01CB01BC01CD010E944900DC0141
:10129000CB019AA389A30FC088EC90E098A38F8F0D
:1012A0008F8D98A10197F1F798A38F8F89A19AA1AB
:1012B00001979AA389A389A19AA1009769F714C0FD
:1012C0006BA17CA18DA19EA10E944900DC01CB01F4
:1012D0009AA389A389A19AA19E8F8D8F8D8D9E8DB2
:1012E0000197F1F79E8F8D8F8FE00E94600780E05D
:1012F00090E0A0E8BFE3898F9A8FAB8FBC8F698D98
:101300007A8D8B8D9C8D20E030E04AEF54E40E9472
:101310001F02DC01CB018D8B9E8BAF8BB88F6D894B
:101320007E898F89988D20E030E040E85FE30E945D
:10133000790388232CF481E090E09C8B8B8B3FC059
:101340006D897E898F89988D20E03FEF4FE757E4C4
:101350000E94190318164CF5698D7A8D8B8D9C8D22
:1013600020E030E040E251E40E941F02DC01CB01AA
:10137000BC01CD010E944900DC01CB019C8B8B8B11
:101380000FC088EC90E09A8B898B89899A890197A4
:10139000F1F79A8B898B8B899C8901979C8B8B8B1E
:1013A0008B899C89009769F714C06D897E898F8924
:1013B000988D0E944900DC01CB019C8B8B8B8B8923
:1013C0009C89988B8F878F8598890197F1F7988BE7
:1013D0008F8780E00E94600780E090E0A0E0B0E4AA
:1013E0008B879C87AD87BE876B857C858D859E8529
:1013F00020E030E04AEF54E40E941F02DC01CB0100
:101400008F839887A987BA876F81788589859A8520
:1014100020E030E040E85FE30E94790388232CF469
:1014200081E090E09E838D833FC06F8178858985C0
:101430009A8520E03FEF4FE757E40E941903181602
:101440004CF56B857C858D859E8520E030E040E203
:1014500051E40E941F02DC01CB01BC01CD010E94BE
:101460004900DC01CB019E838D830FC088EC90E0A6
:101470009C838B838B819C810197F1F79C838B8369
:101480008D819E8101979E838D838D819E810097A2
:1014900069F714C06F81788589859A850E94490013
:1014A000DC01CB019E838D838D819E819A8389830C
:1014B00089819A810197F1F79A838983E8960FB61B
:1014C000F894DEBF0FBECDBFCF91DF910895DF93BB
:1014D000CF9300D00F92CDB7DEB79B838A8319825A
:1014E0000EC08981282F30E08A819B81FC01E20FA8
:1014F000F31F80810E94500689818F5F89838981D3
:10150000282F30E08A819B81FC01E20FF31F80814C
:10151000882339F70F900F900F90CF91DF910895A6
:10152000DF93CF9300D000D0CDB7DEB789836A8335
:101530008981282F30E03C832B838B819C818130F3
:10154000910531F02B813C812230310531F009C009
:101550008A8181580E94600704C08A8181540E9458
:1015600060070F900F900F900F90CF91DF9108952B
:10157000EF92FF920F931F93DF93CF93CDB7DEB718
:101580002C970FB6F894DEBF0FBECDBF69877A8760
:101590008B879C8789859A85AB85BC850097A1053B
:1015A000B10509F479C081E090E0A0E0B0E08D835E
:1015B0009E83AF83B88736C08D819E81AF81B88509
:1015C0002AE030E040E050E0BC01CD010E94B017BD
:1015D0007B018C0189859A85AB85BC852AE030E04A
:1015E00040E050E0BC01CD010E94CF17DC01CB01EF
:1015F0008E0D9F1DA01FB11F8D839E83AF83B88763
:1016000089859A85AB85BC852AE030E040E050E0D2
:10161000BC01CD010E94CF17DA01C90189879A87E1
:10162000AB87BC8789859A85AB85BC850097A1056A
:10163000B10511F628C08D819E81AF81B8852AE061
:1016400030E040E050E0BC01CD010E94CF17DC014A
:10165000CB0189839A83AB83BC838981805D0E949F
:1016600050068D819E81AF81B8852AE030E040E050
:1016700050E0BC01CD010E94CF17DA01C9018D8372
:101680009E83AF83B8878D819E81AF81B88582307C
:101690009105A105B10578F62C960FB6F894DEBF3A
:1016A0000FBECDBFCF91DF911F910F91FF90EF90B3
:1016B0000895DF93CF93CDB7DEB72C970FB6F8948C
:1016C000DEBF0FBECDBF69877A878B879C87698510
:1016D0007A858B859C850E944900DC01CB0189833A
:1016E0009A83AB83BC8389819A81AB81BC81BC0125
:1016F000CD010E94B80A8EE20E94500669817A816B
:101700008B819C810E94A9039B01AC0169857A852C
:101710008B859C850E94C101DC01CB018D839E835A
:10172000AF83B88769857A858B859C8520E030E01A
:1017300040E050E00E94790388234CF48D819E8123
:10174000AF81B885B0588D839E83AF83B8876D8194
:101750007E818F8198850E944900DC01CB01BC010C
:10176000CD010E94B80A2C960FB6F894DEBF0FBECA
:10177000CDBFCF91DF910895DF93CF93CDB7DEB783
:1017800080E060E00E94900A80E40E9460078EE0A2
:101790000E9460078AE00E9460078EE00E94600756
:1017A00082E00E94600782E00E9460078EE00E9453
:1017B000600780E00E94600780E00E94600780E090
:1017C0000E945006CF91DF910895DF93CF93CDB75C
:1017D000DEB781E00E946007CF91DF910895DF932B
:1017E000CF93CDB7DEB780E063E00E94900A83E438
:1017F0000E94600786E00E94600784E00E94600704
:101800008EE00E94600784E00E94600784E00E94EE
:10181000600784E00E94600784E00E94600784E023
:101820000E94600780E00E945006CF91DF910895EA
:10183000DF93CF93CDB7DEB782E40E94600781E0EB
:1018400065E00E94900A84E00E9460078AE00E949E
:1018500060078EE00E94600784E00E9460078EE0CF
:101860000E94600785E10E94600784E00E94600793
:1018700084E00E94600780E00E945006CF91DF91D3
:101880000895DF93CF93CDB7DEB728970FB6F894BE
:10189000DEBF0FBECDBF8B836C838C818A831982A0
:1018A00009C09B818B81989F802D112489838A8117
:1018B00081508A838A818823A1F728960FB6F894ED
:1018C000DEBF0FBECDBFCF91DF910895DF93CF93E1
:1018D00000D000D00F92CDB7DEB78B837D836C83B1
:1018E0008B81882F90E0880F991F880F991F880F90
:1018F000991F8A838A81805C0E94600719820EC0CA
:101900008981282F30E08C819D81FC01E20FF31F3B
:1019100080810E94500689818F5F89838981883008
:1019200078F30F900F900F900F900F90CF91DF9161
:101930000895DF93CF93CDB7DEB72E970FB6F89407
:10194000DEBF0FBECDBF86E00E94600780E090E062
:10195000A0E0B0E48B879C87AD87BE876B857C85D4
:101960008D859E8520E030E04AEF54E40E941F02FE
:10197000DC01CB018F839887A987BA876F8178852F
:1019800089859A8520E030E040E85FE30E94790392
:1019900088232CF481E090E09E838D833FC06F818B
:1019A000788589859A8520E03FEF4FE757E40E94CC
:1019B000190318164CF56B857C858D859E8520E076
:1019C00030E040E251E40E941F02DC01CB01BC0187
:1019D000CD010E944900DC01CB019E838D830FC0A5
:1019E00088EC90E09C838B838B819C810197F1F73D
:1019F0009C838B838D819E8101979E838D838D81B6
:101A00009E81009769F714C06F81788589859A85D2
:101A10000E944900DC01CB019E838D838D819E81D4
:101A20009A83898389819A810197F1F79A838983BF
:101A30002E960FB6F894DEBF0FBECDBFCF91DF91CB
:101A40000895DF93CF93CDB7DEB72E970FB6F894F6
:101A5000DEBF0FBECDBF87E00E94600780E090E050
:101A6000A0E0B0E48B879C87AD87BE876B857C85C3
:101A70008D859E8520E030E04AEF54E40E941F02ED
:101A8000DC01CB018F839887A987BA876F8178851E
:101A900089859A8520E030E040E85FE30E94790381
:101AA00088232CF481E090E09E838D833FC06F817A
:101AB000788589859A8520E03FEF4FE757E40E94BB
:101AC000190318164CF56B857C858D859E8520E065
:101AD00030E040E251E40E941F02DC01CB01BC0176
:101AE000CD010E944900DC01CB019E838D830FC094
:101AF00088EC90E09C838B838B819C810197F1F72C
:101B00009C838B838D819E8101979E838D838D81A4
:101B10009E81009769F714C06F81788589859A85C1
:101B20000E944900DC01CB019E838D838D819E81C3
:101B30009A83898389819A810197F1F79A838983AE
:101B40002E960FB6F894DEBF0FBECDBFCF91DF91BA
:101B50000895DF93CF93CDB7DEB72E970FB6F894E5
:101B6000DEBF0FBECDBF84E00E94600780E090E042
:101B7000A0E0B0E48B879C87AD87BE876B857C85B2
:101B80008D859E8520E030E04AEF54E40E941F02DC
:101B9000DC01CB018F839887A987BA876F8178850D
:101BA00089859A8520E030E040E85FE30E94790370
:101BB00088232CF481E090E09E838D833FC06F8169
:101BC000788589859A8520E03FEF4FE757E40E94AA
:101BD000190318164CF56B857C858D859E8520E054
:101BE00030E040E251E40E941F02DC01CB01BC0165
:101BF000CD010E944900DC01CB019E838D830FC083
:101C000088EC90E09C838B838B819C810197F1F71A
:101C10009C838B838D819E8101979E838D838D8193
:101C20009E81009769F714C06F81788589859A85B0
:101C30000E944900DC01CB019E838D838D819E81B2
:101C40009A83898389819A810197F1F79A8389839D
:101C50002E960FB6F894DEBF0FBECDBFCF91DF91A9
:101C60000895DF93CF93CDB7DEB72E970FB6F894D4
:101C7000DEBF0FBECDBF85E00E94600780E090E030
:101C8000A0E0B0E48B879C87AD87BE876B857C85A1
:101C90008D859E8520E030E04AEF54E40E941F02CB
:101CA000DC01CB018F839887A987BA876F817885FC
:101CB00089859A8520E030E040E85FE30E9479035F
:101CC00088232CF481E090E09E838D833FC06F8158
:101CD000788589859A8520E03FEF4FE757E40E9499
:101CE000190318164CF56B857C858D859E8520E043
:101CF00030E040E251E40E941F02DC01CB01BC0154
:101D0000CD010E944900DC01CB019E838D830FC071
:101D100088EC90E09C838B838B819C810197F1F709
:101D20009C838B838D819E8101979E838D838D8182
:101D30009E81009769F714C06F81788589859A859F
:101D40000E944900DC01CB019E838D838D819E81A1
:101D50009A83898389819A810197F1F79A8389838C
:101D60002E960FB6F894DEBF0FBECDBFCF91DF9198
:101D70000895DF93CF93CDB7DEB7C856D0400FB6E6
:101D8000F894DEBF0FBECDBFFE01E859FF4F808340
:101D90001B8233C01A82FE01E859FF4F80818F7089
:101DA0008A838A818A3080F48B81282F30E08A816F
:101DB000482F405DCE010496FC01E20FF31F4083E3
:101DC0008B818F5F8B830FC08B81282F30E08A81BE
:101DD000482F495CCE010496FC01E20FF31F4083BB
:101DE0008B818F5F8B83DE01A859BF4FFE01E859BD
:101DF000FF4F808182958F708C93FE01E859FF4FD1
:101E00008081882339F68B81815089838981282FAD
:101E100030E0CE010496FC01E20FF31F8081882F91
:101E200090E0A0E0B0E0BC01CD010E94B80A898139
:101E300081508983EBCFDF93CF93CDB7DEB7C65602
:101E4000D0400FB6F894DEBF0FBECDBFFE01EA59F9
:101E5000FF4F808319822CC08981282F30E0FE013A
:101E6000EA59FF4F8081482F4170CE010296FC0154
:101E7000E20FF31F4083DE01AA59BF4FFE01EA596A
:101E8000FF4F808186958C938981282F30E0CE0189
:101E90000296FC01E20FF31F8081882F90E0A0E002
:101EA000B0E0BC01CD010E94B80A89818F5F8983AF
:101EB000FE01EA59FF4F8081882371F6CA59DF4F2E
:101EC0000FB6F894DEBF0FBECDBFCF91DF9108955E
:101ED000DF93CF93CDB7DEB760970FB6F894DEBF30
:101EE0000FBECDBF988B8F8793C09091810181E009
:101EF000692F0E94900A8F8598890E94670A8091B5
:101F000081018B3064F0809181018F50982F81E0A6
:101F1000692F0E94900A8F8598890E94670A80E045
:101F200090E0A8E4B3E48B879C87AD87BE876B8580
:101F30007C858D859E8520E030E04AEF54E40E9448
:101F40001F02DC01CB018F839887A987BA876F8135
:101F5000788589859A8520E030E040E85FE30E943B
:101F6000790388232CF481E090E09E838D833FC029
:101F70006F81788589859A8520E03FEF4FE757E4A8
:101F80000E94190318164CF56B857C858D859E85FE
:101F900020E030E040E251E40E941F02DC01CB016E
:101FA000BC01CD010E944900DC01CB019E838D83E1
:101FB0000FC088EC90E09C838B838B819C81019780
:101FC000F1F79C838B838D819E8101979E838D8306
:101FD0008D819E81009769F714C06F81788589850E
:101FE0009A850E944900DC01CB019E838D838D81FF
:101FF0009E819A83898389819A810197F1F79A83D7
:1020000089830E94E50B809181018F5F809381011C
:102010008091810180310CF468CF81E0809381014F
:1020200060960FB6F894DEBF0FBECDBFCF91DF91A3
:102030000895DF93CF93CDB7DEB727970FB6F89407
:10204000DEBF0FBECDBF89836A834B838981843015
:1020500008F0EEC08A81883008F0EAC08B818130B8
:1020600009F06FC08981282F30E03F832E838E8155
:102070009F818130910549F12E813F8122303105C8
:102080002CF48E819F81009761F0D2C02E813F8118
:102090002230310571F18E819F8183309105E9F104
:1020A000C7C0AAE3B0E0EAE3F0E08081482F8A816C
:1020B000282F30E081E090E0022E02C0880F991FA7
:1020C0000A94E2F7842B8C93B3C0A7E3B0E0E7E374
:1020D000F0E08081482F8A81282F30E081E090E075
:1020E000022E02C0880F991F0A94E2F7842B8C936A
:1020F0009FC0A4E3B0E0E4E3F0E08081482F8A8150
:10210000282F30E081E090E0022E02C0880F991F56
:102110000A94E2F7842B8C938BC0A1E3B0E0E1E357
:10212000F0E08081482F8A81282F30E081E090E024
:10213000022E02C0880F991F0A94E2F7842B8C9319
:1021400077C08B81882309F073C08981282F30E004
:102150003D832C838C819D818130910559F12C81A7
:102160003D81223031052CF48C819D81009769F0EE
:102170005FC02C813D812230310589F18C819D81A8
:102180008330910509F440C053C0AAE3B0E0EAE30C
:10219000F0E08081482F8A81282F30E081E090E0B4
:1021A000022E02C0880F991F0A94E2F780958423BB
:1021B0008C933EC0A7E3B0E0E7E3F0E08081482FD6
:1021C0008A81282F30E081E090E0022E02C0880F43
:1021D000991F0A94E2F7809584238C9329C0A4E385
:1021E000B0E0E4E3F0E08081482F8A81282F30E0DE
:1021F00081E090E0022E02C0880F991F0A94E2F756
:10220000809584238C9314C0A1E3B0E0E1E3F0E077
:102210008081482F8A81282F30E081E090E0022ED3
:1022200002C0880F991F0A94E2F7809584238C934B
:1022300027960FB6F894DEBF0FBECDBFCF91DF91CA
:102240000895DF93CF93CDB7DEB727970FB6F894F5
:10225000DEBF0FBECDBF89836A834B838981843003
:1022600008F0EEC08A81883008F0EAC08B818130A6
:1022700009F06FC08981282F30E03F832E838E8143
:102280009F818130910549F12E813F8122303105B6
:102290002CF48E819F81009761F0D2C02E813F8106
:1022A0002230310571F18E819F8183309105E9F1F2
:1022B000C7C0ABE3B0E0EBE3F0E08081482F8A8158
:1022C000282F30E081E090E0022E02C0880F991F95
:1022D0000A94E2F7842B8C93B3C0A8E3B0E0E8E360
:1022E000F0E08081482F8A81282F30E081E090E063
:1022F000022E02C0880F991F0A94E2F7842B8C9358
:102300009FC0A5E3B0E0E5E3F0E08081482F8A813B
:10231000282F30E081E090E0022E02C0880F991F44
:102320000A94E2F7842B8C938BC0A2E3B0E0E2E343
:10233000F0E08081482F8A81282F30E081E090E012
:10234000022E02C0880F991F0A94E2F7842B8C9307
:1023500077C08B81882309F073C08981282F30E0F2
:102360003D832C838C819D818130910559F12C8195
:102370003D81223031052CF48C819D81009769F0DC
:102380005FC02C813D812230310589F18C819D8196
:102390008330910509F440C053C0ABE3B0E0EBE3F8
:1023A000F0E08081482F8A81282F30E081E090E0A2
:1023B000022E02C0880F991F0A94E2F780958423A9
:1023C0008C933EC0A8E3B0E0E8E3F0E08081482FC2
:1023D0008A81282F30E081E090E0022E02C0880F31
:1023E000991F0A94E2F7809584238C9329C0A5E372
:1023F000B0E0E5E3F0E08081482F8A81282F30E0CB
:1024000081E090E0022E02C0880F991F0A94E2F743
:10241000809584238C9314C0A2E3B0E0E2E3F0E063
:102420008081482F8A81282F30E081E090E0022EC1
:1024300002C0880F991F0A94E2F7809584238C9339
:1024400027960FB6F894DEBF0FBECDBFCF91DF91B8
:102450000895DF93CF9300D000D00F92CDB7DEB7B1
:102460008A836B838A81843008F06CC08B818830CA
:1024700008F068C08A81282F30E03D832C834C818E
:102480005D814130510541F18C819D818230910502
:1024900034F42C813D812115310561F055C04C810A
:1024A0005D814230510551F18C819D8183309105D0
:1024B000B9F14AC0E9E3F0E08081282F30E08B8158
:1024C000882F90E0A90102C0559547958A95E2F7BB
:1024D000CA018170898338C0E6E3F0E08081282F4B
:1024E00030E08B81882F90E0A90102C05595479577
:1024F0008A95E2F7CA018170898326C0E3E3F0E0A0
:102500008081282F30E08B81882F90E0A90102C0C4
:10251000559547958A95E2F7CA018170898314C061
:10252000E0E3F0E08081282F30E08B81882F90E07D
:10253000A90102C0559547958A95E2F7CA018170B5
:10254000898302C08FEF898389810F900F900F904C
:102550000F900F90CF91DF910895DF93CF9300D02C
:1025600000D0CDB7DEB789836A838981282F30E018
:102570003C832B838B819C8181309105D1F02B8111
:102580003C81223031052CF48B819C81009761F0D5
:102590001EC02B813C812230310581F08B819C81D2
:1025A0008330910581F013C0EAE3F0E08A818083F3
:1025B0000EC0E7E3F0E08A81808309C0E4E3F0E045
:1025C0008A81808304C0E1E3F0E08A8180830F90F8
:1025D0000F900F900F90CF91DF910895DF93CF93DD
:1025E00000D000D0CDB7DEB789836A838981282FD8
:1025F00030E03C832B838B819C8181309105D1F02D
:102600002B813C81223031052CF48B819C810097F9
:1026100061F01EC02B813C812230310581F08B811D
:102620009C818330910581F013C0EBE3F0E08A8157
:1026300080830EC0E8E3F0E08A81808309C0E5E38F
:10264000F0E08A81808304C0E2E3F0E08A81808345
:102650000F900F900F900F90CF91DF910895DF931F
:10266000CF9300D000D0CDB7DEB789836A8389814C
:10267000843008F072C08A81883008F06EC0898189
:10268000282F30E03C832B838B819C818130910506
:1026900049F12B813C81223031052CF48B819C81C6
:1026A000009761F05AC02B813C812230310571F1D5
:1026B0008B819C8183309105E9F14FC0ABE3B0E0A1
:1026C000EBE3F0E08081482F8A81282F30E081E021
:1026D00090E0022E02C0880F991F0A94E2F7842727
:1026E0008C933BC0A8E3B0E0E8E3F0E08081482FA2
:1026F0008A81282F30E081E090E0022E02C0880F0E
:10270000991F0A94E2F784278C9327C0A5E3B0E0D1
:10271000E5E3F0E08081482F8A81282F30E081E0D6
:1027200090E0022E02C0880F991F0A94E2F78427D6
:102730008C9313C0A2E3B0E0E2E3F0E08081482F85
:102740008A81282F30E081E090E0022E02C0880FBD
:10275000991F0A94E2F784278C930F900F900F90A3
:102760000F90CF91DF910895DF93CF9300D000D0E9
:10277000CDB7DEB789836A838981843008F072C05F
:102780008A81883008F06EC08981282F30E03C8330
:102790002B838B819C818130910549F12B813C8178
:1027A000223031052CF48B819C81009761F05AC056
:1027B0002B813C812230310571F18B819C818330EA
:1027C0009105E9F14FC0ABE3B0E0EBE3F0E08081CD
:1027D000482F8A81282F30E081E090E0022E02C04D
:1027E000880F991F0A94E2F7842B8C933BC0A8E3CF
:1027F000B0E0E8E3F0E08081482F8A81282F30E0C4
:1028000081E090E0022E02C0880F991F0A94E2F73F
:10281000842B8C9327C0A5E3B0E0E5E3F0E0808152
:10282000482F8A81282F30E081E090E0022E02C0FC
:10283000880F991F0A94E2F7842B8C9313C0A2E3AC
:10284000B0E0E2E3F0E08081482F8A81282F30E079
:1028500081E090E0022E02C0880F991F0A94E2F7EF
:10286000842B8C930F900F900F900F90CF91DF914E
:102870000895DF93CF93CDB7DEB7ABE2B0E0EBE2E4
:10288000F0E080818D7F8C93E9E2F0E083E3808348
:10289000AAE2B0E0EAE2F0E0808180618C93AAE2F3
:1028A000B0E0EAE2F0E0808188608C938091820160
:1028B000806880938201809182018F7B8093820166
:1028C000809182018F7D80938201809182018F7E31
:1028D0008093820180918201877F80938201809121
:1028E0008201826080938201809182018460809362
:1028F0008201E0E4F0E0809182018083CF91DF915A
:102900000895DF93CF930F92CDB7DEB78983ECE2C2
:10291000F0E089818083EBE2F0E08081829586950A
:1029200087708823C1F30F90CF91DF910895DF93D3
:10293000CF93CDB7DEB7EBE2F0E080818823DCF700
:10294000ECE2F0E08081CF91DF910895DF93CF93A7
:1029500000D00F92CDB7DEB79A838983EBE2F0E027
:10296000808188234CF4ECE2F0E08081E981FA81F7
:10297000808381E08B8301C01B828B810F900F903D
:102980000F90CF91DF910895DF93CF93CDB7DEB74E
:10299000AAE2B0E0EAE2F0E0808180688C93CF9117
:1029A000DF910895DF93CF93CDB7DEB7AAE2B0E011
:1029B000EAE2F0E080818F778C93CF91DF910895E8
:1029C000DF93CF93CDB7DEB7AAE2B0E0EAE2F0E062
:1029D000808180648C93CF91DF910895DF93CF93B2
:1029E000CDB7DEB7AAE2B0E0EAE2F0E080818F7B0B
:1029F0008C93CF91DF910895DF93CF9300D0CDB723
:102A0000DEB79A8389830F900F90CF91DF9108955D
:102A1000DF93CF9300D0CDB7DEB79A8389830F9031
:102A20000F90CF91DF910895DF93CF930F92CDB7A1
:102A3000DEB78983ECE2F0E0898180830F90CF914B
:102A4000DF910895DF93CF93CDB7DEB7ECE2F0E0EE
:102A50008081CF91DF910895DF93CF9300D00F92C3
:102A6000CDB7DEB79B838A8319820EC08981282F58
:102A700030E08A819B81FC01E20FF31F80810E947C
:102A8000811489818F5F89838981282F30E08A8131
:102A90009B81FC01E20FF31F8081882339F780E6D8
:102AA00090E00E9481140F900F900F90CF91DF91D2
:102AB00008950F931F93DF93CF9300D00F92CDB75C
:102AC000DEB79B838A8319828981282F30E08A812F
:102AD0009B818C01020F131F0E949714F8018083C1
:102AE0000FC089818F5F89838981282F30E08A8197
:102AF0009B818C01020F131F0E949714F8018083A1
:102B00008981282F30E08A819B81FC01E20FF31F2D
:102B10008081813431F78981282F30E08A819B813F
:102B2000FC01E20FF31F10820F900F900F90CF91D6
:102B3000DF911F910F910895DF93CF93CDB7DEB74B
:102B4000E9970FB6F894DEBF0FBECDBF0E947008A4
:102B50000E94E50B80E060E041E00E9419100E94B5
:102B600039140E94971489AF89AD813609F0F9C0F4
:102B700080E060E041E00E94211189AD0E94811453
:102B800080E090E0A8E4B3E48DAB9EABAFABB8AF10
:102B90006DA97EA98FA998AD20E030E04AEF54E4FA
:102BA0000E941F02DC01CB0189AB9AABABABBCAB83
:102BB00069A97AA98BA99CA920E030E040E85FE3ED
:102BC0000E94790388232CF481E090E098AB8FA7D2
:102BD0003FC069A97AA98BA99CA920E03FEF4FE7E4
:102BE00057E40E94190318164CF56DA97EA98FA908
:102BF00098AD20E030E040E251E40E941F02DC0189
:102C0000CB01BC01CD010E944900DC01CB0198AB96
:102C10008FA70FC088EC90E09EA78DA78DA59EA5DD
:102C20000197F1F79EA78DA78FA598A9019798AB5B
:102C30008FA78FA598A9009769F714C069A97AA9E9
:102C40008BA99CA90E944900DC01CB0198AB8FA7FE
:102C50008FA598A99CA78BA78BA59CA50197F1F799
:102C60009CA78BA781E061E00E94900A82E690E039
:102C70000E94670A8CE690E00E942C1580E090E0AC
:102C8000A8E4B3E48FA398A7A9A7BAA76FA178A5D2
:102C900089A59AA520E030E04AEF54E40E941F0283
:102CA000DC01CB018BA39CA3ADA3BEA36BA17CA134
:102CB0008DA19EA120E030E040E85FE30E9479030F
:102CC00088232CF481E090E09AA389A33FC06BA1F4
:102CD0007CA18DA19EA120E03FEF4FE757E40E9429
:102CE000190318164CF56FA178A589A59AA520E0BF
:102CF00030E040E251E40E941F02DC01CB01BC0144
:102D0000CD010E944900DC01CB019AA389A30FC029
:102D100088EC90E098A38F8F8F8D98A10197F1F7A1
:102D200098A38F8F89A19AA101979AA389A389A1BA
:102D30009AA1009769F715CF6BA17CA18DA19EA1E7
:102D40000E944900DC01CB019AA389A389A19AA121
:102D50009E8F8D8F8D8D9E8D0197F1F79E8F8D8F1C
:102D600000CF89AD823609F0FCCE80E060E040E023
:102D70000E94211189AD0E94811480E090E0A8E4B6
:102D8000B3E4898F9A8FAB8FBC8F698D7A8D8B8DD1
:102D90009C8D20E030E04AEF54E40E941F02DC01E9
:102DA000CB018D8B9E8BAF8BB88F6D897E898F8980
:102DB000988D20E030E040E85FE30E9479038823AB
:102DC0002CF481E090E09C8B8B8B3FC06D897E89D9
:102DD0008F89988D20E03FEF4FE757E40E94190359
:102DE00018164CF5698D7A8D8B8D9C8D20E030E026
:102DF00040E251E40E941F02DC01CB01BC01CD0185
:102E00000E944900DC01CB019C8B8B8B0FC088ECAE
:102E100090E09A8B898B89899A890197F1F79A8B2F
:102E2000898B8B899C8901979C8B8B8B8B899C8947
:102E3000009769F714C06D897E898F89988D0E94EB
:102E40004900DC01CB019C8B8B8B8B899C89988BF7
:102E50008F878F8598890197F1F7988B8F870E94CC
:102E6000E50B81E061E00E94900A82E690E00E941A
:102E7000670A82E790E00E942C1580E090E0A8E4C9
:102E8000B3E48B879C87AD87BE876B857C858D85FA
:102E90009E8520E030E04AEF54E40E941F02DC01EE
:102EA000CB018F839887A987BA876F8178858985B9
:102EB0009A8520E030E040E85FE30E9479038823B0
:102EC0002CF481E090E09E838D833FC06F817885F4
:102ED00089859A8520E03FEF4FE757E40E94190368
:102EE00018164CF56B857C858D859E8520E030E03D
:102EF00040E251E40E941F02DC01CB01BC01CD0184
:102F00000E944900DC01CB019E838D830FC088ECB9
:102F100090E09C838B838B819C810197F1F79C834C
:102F20008B838D819E8101979E838D838D819E8170
:102F3000009769F716CE6F81788589859A850E94FA
:102F40004900DC01CB019E838D838D819E819A8314
:102F5000898389819A810197F1F79A83898301CEC8
:102F6000629FD001739FF001829FE00DF11D649F6D
:102F7000E00DF11D929FF00D839FF00D749FF00DF9
:102F8000659FF00D9927729FB00DE11DF91F639F9A
:102F9000B00DE11DF91FBD01CF0111240895A1E27B
:102FA0001A2EAA1BBB1BFD010DC0AA1FBB1FEE1FC3
:102FB000FF1FA217B307E407F50720F0A21BB30B0E
:102FC000E40BF50B661F771F881F991F1A9469F78A
:102FD00060957095809590959B01AC01BD01CF01E6
:102FE00008952F923F924F925F926F927F928F92AD
:102FF0009F92AF92BF92CF92DF92EF92FF920F9388
:103000001F93CF93DF93CDB7DEB7CA1BDB0B0FB691
:10301000F894DEBF0FBECDBF09942A88398848884E
:103020005F846E847D848C849B84AA84B984C884E4
:10303000DF80EE80FD800C811B81AA81B981CE0FDB
:10304000D11D0FB6F894DEBF0FBECDBFED010895C0
:04305000F894FFCF22
:1030540023004C4544204953204F4E004C45444FD7
:103064004E004C45444F464600000000000000005E
:10307400000001020203030303040404040404041F
:1030840004050505050505050505050505050505ED
:1030940005060606060606060606060606060606CD
:1030A40006060606060606060606060606060606BC
:1030B400060707070707070707070707070707079D
:1030C400070707070707070707070707070707078C
:1030D400070707070707070707070707070707077C
:1030E400070707070707070707070707070707076C
:1030F400070808080808080808080808080808084D
:10310400080808080808080808080808080808083B
:10311400080808080808080808080808080808082B
:10312400080808080808080808080808080808081B
:10313400080808080808080808080808080808080B
:1031440008080808080808080808080808080808FB
:1031540008080808080808080808080808080808EB
:1031640008080808080808080808080808080808DB
:0231740008FF52
:00000001FF
