:100000000C942A000C9434000C9434000C943400AA
:100010000C9434000C9434000C9434000C94340090
:100020000C9434000C9434000C9434000C94340080
:100030000C9434000C9434000C9434000C94340070
:100040000C9434000C9434000C9434000C94340060
:100050000C94340011241FBECFE5D8E0DEBFCDBF25
:100060000E943A010C9448010C940000DF93CF9356
:10007000CDB7DEB7E0E2F0E082E08083A6E5B0E055
:10008000E6E5F0E0808180688C93A6E5B0E0E6E5E7
:10009000F0E080818F7B8C93A6E5B0E0E6E5F0E0B0
:1000A000808184608C93CF91DF910895DF93CF930B
:1000B000CDB7DEB7A6E5B0E0E6E5F0E0808184608C
:1000C0008C93CF91DF910895DF93CF93CDB7DEB7B7
:1000D000A6E5B0E0E6E5F0E0808180688C93A6E5D7
:1000E000B0E0E6E5F0E0808180628C93A6E5B0E0C8
:1000F000E6E5F0E0808184608C93E6E5F0E08081C5
:100100008823DCF7CF91DF910895DF93CF93CDB7AC
:10011000DEB7A6E5B0E0E6E5F0E0808180688C938C
:10012000A6E5B0E0E6E5F0E0808180618C93A6E58D
:10013000B0E0E6E5F0E0808184608C93E6E5F0E0F5
:1001400080818823DCF7CF91DF910895DF93CF93EF
:100150000F92CDB7DEB78983E3E2F0E08981882F83
:1001600090E0880F991F81608083E6E5F0E084E8E5
:100170008083E6E5F0E080818823DCF70F90CF9163
:10018000DF910895DF93CF930F92CDB7DEB78983C8
:10019000E3E2F0E08981880F8083E6E5F0E084E81F
:1001A0008083E6E5F0E080818823DCF70F90CF9133
:1001B000DF910895DF93CF93CDB7DEB7E6E5F0E0AA
:1001C00084E88083E6E5F0E080818823DCF7E3E2E1
:1001D000F0E08081CF91DF910895DF93CF930F926C
:1001E000CDB7DEB78983E3E2F0E089818083E6E57D
:1001F000F0E084E88083E6E5F0E080818823DCF7A6
:100200000F90CF91DF910895DF93CF93CDB7DEB7F5
:10021000CF91DF910895DF93CF9300D0CDB7DEB7B4
:100220008983E1E2F0E08081882F90E09C01287FC3
:1002300030708981882F90E02817390719F481E000
:100240008A8301C01A828A810F900F90CF91DF912B
:100250000895DF93CF93CDB7DEB7CF91DF910895A7
:10026000DF93CF930F92CDB7DEB789830F90CF91F5
:10027000DF910895DF93CF930F92CDB7DEB70E9441
:1002800036000E94640088E00E940B018983F9CF48
:04029000F894FFCF10
:00000001FF
